{"abi":[{"type":"constructor","inputs":[],"stateMutability":"nonpayable"},{"type":"function","name":"balanceOf","inputs":[{"name":"account","type":"address","internalType":"address"}],"outputs":[{"name":"","type":"uint256","internalType":"uint256"}],"stateMutability":"view"}],"bytecode":{"object":"0x6080604052348015600e575f5ffd5b506103e85f5f3373ffffffffffffffffffffffffffffffffffffffff1673ffffffffffffffffffffffffffffffffffffffff1681526020019081526020015f20819055506101928061005f5f395ff3fe608060405234801561000f575f5ffd5b5060043610610029575f3560e01c806370a082311461002d575b5f5ffd5b61004760048036038101906100429190610100565b61005d565b6040516100549190610143565b60405180910390f35b5f5f5f8373ffffffffffffffffffffffffffffffffffffffff1673ffffffffffffffffffffffffffffffffffffffff1681526020019081526020015f20549050919050565b5f5ffd5b5f73ffffffffffffffffffffffffffffffffffffffff82169050919050565b5f6100cf826100a6565b9050919050565b6100df816100c5565b81146100e9575f5ffd5b50565b5f813590506100fa816100d6565b92915050565b5f60208284031215610115576101146100a2565b5b5f610122848285016100ec565b91505092915050565b5f819050919050565b61013d8161012b565b82525050565b5f6020820190506101565f830184610134565b9291505056fea2646970667358221220f2d7c1752e8e7a2224cfc17cbc1417df3759e347161d8453c6b5db8b57e3355f64736f6c63430008210033","linkReferences":{}},"methodIdentifiers":{"balanceOf(address)":"70a08231"},"id":0}